{
  "transactions": [
    {
      "hash": "0xe0e17fb50888c3fa6b525121fd620d660d703be1e5934d14ed4a202e25aee837",
      "transactionType": "CALL",
      "contractName": null,
      "contractAddress": "0x996da15db8b9e938d8bec848e27f6567990493bb",
      "function": "mint(address,string,string,string,string)",
      "arguments": [
        "0xabc4Cbf716472c47a61c8c2c5076895600F3cf10",
        "John",
        "Doe",
        "ADVANCED",
        "binance"
      ],
      "transaction": {
        "from": "0xabc4cbf716472c47a61c8c2c5076895600f3cf10",
        "to": "0x996da15db8b9e938d8bec848e27f6567990493bb",
        "gas": "0x56af6",
        "value": "0x0",
        "input": "0xa40d1b10000000000000000000000000abc4cbf716472c47a61c8c2c5076895600f3cf1000000000000000000000000000000000000000000000000000000000000000a000000000000000000000000000000000000000000000000000000000000000e00000000000000000000000000000000000000000000000000000000000000120000000000000000000000000000000000000000000000000000000000000016000000000000000000000000000000000000000000000000000000000000000044a6f686e000000000000000000000000000000000000000000000000000000000000000000000000000000000000000000000000000000000000000000000003446f6500000000000000000000000000000000000000000000000000000000000000000000000000000000000000000000000000000000000000000000000008414456414e434544000000000000000000000000000000000000000000000000000000000000000000000000000000000000000000000000000000000000000762696e616e636500000000000000000000000000000000000000000000000000",
        "nonce": "0x9",
        "chainId": "0x1e0f3"
      },
      "additionalContracts": [],
      "isFixedGasLimit": false
    }
  ],
  "receipts": [
    {
      "status": "0x1",
      "cumulativeGasUsed": "0x4bd68",
      "logs": [
        {
          "address": "0x996da15db8b9e938d8bec848e27f6567990493bb",
          "topics": [
            "0xddf252ad1be2c89b69c2b068fc378daa952ba7f163c4a11628f55a4df523b3ef",
            "0x0000000000000000000000000000000000000000000000000000000000000000",
            "0x000000000000000000000000abc4cbf716472c47a61c8c2c5076895600f3cf10",
            "0x0000000000000000000000000000000000000000000000000000000000000000"
          ],
          "data": "0x",
          "blockHash": "0x98e3c13cb3a2f830e253c34ae4c343a3d502231290e860bb30e14f92c271c1bc",
          "blockNumber": "0xf1f1a",
          "blockTimestamp": "0x691dcabe",
          "transactionHash": "0xe0e17fb50888c3fa6b525121fd620d660d703be1e5934d14ed4a202e25aee837",
          "transactionIndex": "0x1",
          "logIndex": "0x2",
          "removed": false
        },
        {
          "address": "0x996da15db8b9e938d8bec848e27f6567990493bb",
          "topics": [
            "0xc5f81aa415d614a63abe2089c6befb4606bdc628e415f1bf93979899a07827a2",
            "0x000000000000000000000000abc4cbf716472c47a61c8c2c5076895600f3cf10",
            "0x0000000000000000000000000000000000000000000000000000000000000000"
          ],
          "data": "0x000000000000000000000000000000000000000000000000000000000000008000000000000000000000000000000000000000000000000000000000000000c00000000000000000000000000000000000000000000000000000000000000100000000000000000000000000000000000000000000000000000000000000014000000000000000000000000000000000000000000000000000000000000000044a6f686e000000000000000000000000000000000000000000000000000000000000000000000000000000000000000000000000000000000000000000000003446f6500000000000000000000000000000000000000000000000000000000000000000000000000000000000000000000000000000000000000000000000008414456414e434544000000000000000000000000000000000000000000000000000000000000000000000000000000000000000000000000000000000000000762696e616e636500000000000000000000000000000000000000000000000000",
          "blockHash": "0x98e3c13cb3a2f830e253c34ae4c343a3d502231290e860bb30e14f92c271c1bc",
          "blockNumber": "0xf1f1a",
          "blockTimestamp": "0x691dcabe",
          "transactionHash": "0xe0e17fb50888c3fa6b525121fd620d660d703be1e5934d14ed4a202e25aee837",
          "transactionIndex": "0x1",
          "logIndex": "0x3",
          "removed": false
        }
      ],
      "logsBloom": "0x00000000000000000000000000000000000000000000000000000000000000000000000000000000000000000000000000000000000000000400000000000000000000000000000000000088000000000000100000000000000000000000000000000000020000000000000000000800000000000000000000000010000040000000400000000000000000000000000000000000000000040000000000000000000000200000000000000000000000000000000000000000000000000000000000000002000000000400000000000000000000000000000000100000000020000000000000000000000000000000000000000000000000000000000000000000",
      "type": "0x2",
      "transactionHash": "0xe0e17fb50888c3fa6b525121fd620d660d703be1e5934d14ed4a202e25aee837",
      "transactionIndex": "0x1",
      "blockHash": "0x98e3c13cb3a2f830e253c34ae4c343a3d502231290e860bb30e14f92c271c1bc",
      "blockNumber": "0xf1f1a",
      "gasUsed": "0x3b45a",
      "effectiveGasPrice": "0x28",
      "from": "0xabc4cbf716472c47a61c8c2c5076895600f3cf10",
      "to": "0x996da15db8b9e938d8bec848e27f6567990493bb",
      "contractAddress": null
    }
  ],
  "libraries": [],
  "pending": [],
  "returns": {},
  "timestamp": 1763560127128,
  "chain": 123123,
  "commit": "7d0fe60"
}